:020000040800F2
:10000000A80600208901000891010008930100085A
:100010009501000897010008990100080000000000
:100020000000000000000000000000009B0100082C
:100030009D010008000000009F010008A1010008C8
:10004000A3010008A3010008A3010008A301000800
:10005000A3010008A3010008A3010008A3010008F0
:10006000A3010008A3010008A3010008A3010008E0
:10007000A3010008A3010008A3010008A3010008D0
:10008000A3010008A3010008A3010008A3010008C0
:1000900009160008A3010008A3010008A301000835
:1000A000A3010008A3010008A3010008A3010008A0
:1000B000A3010008A3010008A3010008A301000890
:1000C000A3010008A3010008A3010008A301000880
:1000D000A3010008A3010008A3010008A301000870
:1000E000A3010008A3010008A301000800F002F822
:1000F00000F03AF80AA090E8000C82448344AAF188
:100100000107DA4501D100F02FF8AFF2090EBAE885
:100110000F0013F0010F18BFFB1A43F0010318473B
:10012000903E0000B03E0000103A24BF78C878C16D
:10013000FAD8520724BF30C830C144BF04680C60ED
:10014000704700000023002400250026103A28BF35
:1001500078C1FBD8520728BF30C148BF0B60704739
:100160001FB51FBD10B510BD00F082F81146FFF796
:10017000F7FF01F0B7FA00F0A0F803B4FFF7F2FFC1
:1001800003BC00F0A7F80000094880470948004771
:10019000FEE7FEE7FEE7FEE7FEE7FEE7FEE7FEE737
:1001A000FEE7FEE704480549054A064B7047000094
:1001B000A9140008ED000008A8000020A8060020EF
:1001C000A8020020A802002002F0FF0343EA032255
:1001D00042EA024200F005B87047704770474FF09E
:1001E00000020429C0F0128010F0030C00F01B8004
:1001F000CCF1040CBCF1020F18BF00F8012BA8BF12
:1002000020F8022BA1EB0C0100F00DB85FEAC17CD5
:1002100024BF00F8012B00F8012B48BF00F8012B88
:1002200070474FF0000200B51346944696462039B9
:1002300022BFA0E80C50A0E80C50B1F12001BFF49F
:10024000F7AF090728BFA0E80C5048BF0CC05DF805
:1002500004EB890028BF40F8042B08BF704748BF53
:1002600020F8022B11F0804F18BF00F8012B7047C7
:10027000754600F02BF8AE4605006946534620F05F
:100280000700854618B020B5FFF78CFFBDE8204079
:100290004FF000064FF000074FF000084FF0000B42
:1002A00021F00701AC46ACE8C009ACE8C009ACE8F5
:1002B000C009ACE8C0098D46704710B50446AFF3DD
:1002C00000802046BDE81040FFF757BF0048704748
:1002D0004400002001491820ABBEFEE726000200C2
:1002E00070470000B1F5007F3AD00FDC202928D0FC
:1002F00006DC01291CD004291DD0082940D11DE0AD
:10030000402921D0B1F5807F3AD126E0B1F5004FE8
:1003100031D006DCB1F5806F25D0B1F5006F2FD15B
:1003200024E0B1F5803F12D0B1F5003F28D111E0B3
:10033000154A826025E00822C26022E01022C260D5
:100340001FE0082202611CE01022026119E008226D
:10035000426016E01022426013E00422426010E086
:10036000042242600DE0042242600AE00022826121
:100370000422426005E0002282610422426000E023
:1003800000BF00BF70470000010101001FB5002041
:100390008DF80A0001208DF80B008DF80C0000206C
:1003A0008DF80D008DF80E008DF80F008DF8060009
:1003B0008DF8070005208DF8080007208DF809004A
:1003C0000620ADF8040014208DF8000000208DF800
:1003D00001008DF8020001208DF80300684600F04E
:1003E0000FFC01220221054800F03EF900BF01A9DF
:1003F000024800F042F90028F9D01FBD0064004017
:100400001FB500208DF80A008DF80B0001208DF833
:100410000C0043F2A050ADF800000020ADF802003F
:100420004FF6E070ADF804000020ADF80600ADF81E
:10043000080001208DF80D00684600F001F81FBD8E
:1004400010B50021837A012202FA03F13D4A1268B5
:1004500042F001023B4B1A603A4A1C3212688A434E
:10046000384B1C331A60027BCAB9364A0C32126808
:100470008A43344B0C331A604288C38842EA0343F0
:10048000304A4032847A42F834300288838842EA23
:1004900003432C4A4032847A02EBC4025360027B4D
:1004A000012A19D1274A0C3212680A43254B0C3312
:1004B0001A604288038842EA0343224A4032847A1F
:1004C00042F83430C288838842EA03431D4A4032EE
:1004D000847A02EBC4025360C27A3AB9194A121DF7
:1004E00012688A43174B1B1D1A6006E0154A121D3D
:1004F00012680A43134B1B1D1A60028932B9114A54
:10050000143212688A430F4B14331A600289012A8D
:1005100006D10C4A143212680A430A4B14331A608B
:10052000427B012A06D1074A1C3212680A43054B56
:100530001C331A60034A126822F00102014B1A6050
:1005400010BD00000066004070B504460D46002650
:1005500060692840002871D0B5F5807F5CD010DC40
:10056000082D35D006DC012D20D0022D24D0042DFD
:1005700072D127E0102D31D0202D35D0402D6BD1F8
:1005800038E0B5F5004F60D009DCB5F5007F49D003
:10059000B5F5806F4CD0B5F5006F5DD14FE0B5F586
:1005A000803F2DD0B5F5003F56D12FE0A0682D49F2
:1005B00000F082F9064651E0E068032100F07CF982
:1005C00006464BE0E068082100F076F9064645E073
:1005D000E068102100F070F906463FE02069032131
:1005E00000F06AF9064639E02069082100F064F954
:1005F000064633E02069102100F05EF906462DE042
:100600006068082100F058F9064627E0606810216C
:1006100000F052F9064621E0A069012100F04CF9F2
:1006200006461BE0A069022100F046F9064615E0E7
:10063000A069042100F040F906460FE00FE0A06930
:10064000702100F039F9064608E06068042100F0E6
:1006500033F9064602E0FFE7002600BF00E000266F
:10066000304670BD010101001AB143690B4343617B
:1006700002E043698B434361704730B50246002076
:100680000023146824F002041460146844F0010488
:10069000146000E05B1C546804F001041CB94FF6C0
:1006A000FF74A342F6D1546804F001040CB9002091
:1006B0006CE08C79012C04D1146844F0800414603F
:1006C00003E0146824F080041460CC79012C04D178
:1006D000146844F04004146003E0146824F04004FB
:1006E00014600C7A012C04D1146844F020041460C6
:1006F00003E0146824F0200414604C7A012C04D127
:10070000146844F01004146003E0146824F010042A
:1007100014608C7A012C04D1146844F0080414602D
:1007200003E0146824F008041460CC7A012C04D18E
:10073000146844F00404146003E0146824F0040412
:1007400014608C78A407CD7844EA05640D7944EAF6
:1007500005444D7944EA05540D886D1E2C43D4613F
:10076000146824F001041460002300E05B1C54684A
:1007700004F001041CB14FF6FF74A342F6D1546893
:1007800004F001040CB1002000E0012030BD10B5E0
:1007900000F5D87303EB01131B6803F00403137215
:1007A000137A53B900F5D87303EB01131B6840F2B9
:1007B000FF7404EA5353136009E000F5D87303EBA8
:1007C00001131B686FF0604404EAD303536000F523
:1007D000D87303EB01131B6803F00203537200F597
:1007E000D87303EB01135B6803F00F03937200F5FA
:1007F000D87303EB01135B681B0AD37400F5D8733D
:1008000003EB01139B68D37200F5D87303EB01135C
:100810009B681C0A147300F5D87303EB01139B68E3
:100820001C0C547300F5D87303EB01139B681B0E6B
:10083000937300F5D87303EB0113DB68D37300F5F2
:10084000D87303EB0113DB681C0A147400F5D8732A
:1008500003EB0113DB681C0C547400F5D87303EB35
:100860000113DB681B0E937421B9C36843F02003A6
:10087000C36003E0036943F02003036110BD00007F
:1008800030B585B004460D466A4600210948FFF799
:100890007EFF0098A0420AD1002004E00DF10B0178
:1008A000095C2954401C9DF80A108142F6DC05B011
:1008B00030BD0000006400400246002002EA01034F
:1008C0000BB1012000E000207047000008B5C020F7
:1008D000ADF800001C208DF8030003208DF8020005
:1008E0006946154800F02CF84FF44060ADF8000060
:1008F0001C208DF8030003208DF8020069460E4885
:1009000000F01EF84FF40060ADF8000004208DF8F0
:1009100003006946094800F013F84FF48050ADF821
:10092000000018208DF8030003208DF802006946AE
:10093000024800F005F808BD000C01400008014025
:100940002DE9F04102460025002600200023002466
:10095000002791F803C00CF00F0591F803C00CF0CC
:10096000100CBCF1000F03D091F802C04CEA050551
:1009700091F800C0BCF1000F31D0146800202BE0CA
:100980004FF0010C0CFA00F3B1F800C00CEA0306BA
:100990009E4220D183004FF00F0C0CFA03F7BC43AA
:1009A00005FA03FC4CEA040491F803C0BCF1280FDB
:1009B00006D14FF0010C0CFA00FCC2F814C00AE09A
:1009C00091F803C0BCF1480F05D14FF0010C0CFAAF
:1009D00000FCC2F810C0401C0828D1D31460B1F844
:1009E00000C0BCF1FF0F34DD546800202EE000F1A0
:1009F000080C4FF0010808FA0CF3B1F800C00CEA3B
:100A000003069E4221D183004FF00F0C0CFA03F72E
:100A1000BC4305FA03FC4CEA040491F803C0BCF1A2
:100A2000280F05D100F1080C08FA0CF8C2F8148060
:100A300091F803C0BCF1480F07D100F1080C4FF04A
:100A4000010808FA0CF8C2F81080401C0828CED320
:100A50005460BDE8F08170B50246002400250023F3
:100A60000020958A138B1B0445EA030626F07F4479
:100A700004EA01068E4201D1012000E0002070BD91
:100A800021B1028842F00102028004E002884FF6A0
:100A9000FE731A400280704721B1028842F48072CE
:100AA000028004E002884FF6FF631A40028070471C
:100AB00021B1028842F40072028004E002884FF6FD
:100AC000FF531A40028070472DE9F04385B0044679
:100AD0000D460026B1460427DFF8CC80A6884FF6E5
:100AE000C0700640684600F0B9F9DDF808802F486C
:100AF000B8FBF0F01FFA80F946EA0906A6802088C4
:100B00004FF6FE7108402080002629492868884257
:100B10000CD828684000B8FBF0F087B2042F00DA48
:100B200004273E4309F10100208427E0E8884BF6C2
:100B3000FF71884206D1286800EB4000B8FBF0F056
:100B400087B209E0286800EBC00101EB0010B8FB98
:100B5000F0F087B247F48047C7F30B0008B947F0BD
:100B6000010747F4004006434FF4967009FB00F07C
:100B70004FF47A7190FBF1F0401C2084A68320880A
:100B800040F00100208026884FF6F5300640A88806
:100B90006989084306432680A8892989084320815A
:100BA00005B0BDE8F083000000127A0040420F005B
:100BB000A086010012B141F0010102E04FF6FE7380
:100BC0001940018270470182704770B504460D4696
:100BD0004FF0804000F0C1FC064608E04FF0804036
:100BE00000F0BBFC801B0A2801D3002070BD294601
:100BF0002046FFF730FF0028F0D00120F6E7000084
:100C000070B5002100230F22C47804B3154C24686A
:100C100004F4E064C4F5E064210AC1F10403CA40AD
:100C2000447804FA03F184781440214309010E4CFE
:100C30000678A155047804F01F050124AC4005781E
:100C40006D11AD0005F1E025C5F8004109E004781B
:100C500004F01F050124AC40044D0678761145F8D8
:100C6000264070BD0CED00E000E400E080E100E013
:100C700002490143024A1160704700000000FA0572
:100C80000CED00E07FB505460C46104800900020B2
:100C9000ADF804004BF6FF70ADF806000020ADF88B
:100CA00008004FF48060ADF80A000001ADF80C00B8
:100CB00069462046FFF708FF01212046FFF7E0FEC6
:100CC0002146284600F030FA04B070BD801A0600B4
:100CD0002DE9F74F8CB00F4690460C9800F028F99C
:100CE00000257CE0284605EBD0714910A5EB4101B9
:100CF00009B9002100E040218946022D01DA0020D7
:100D000000E0202082461FFA8AF21FFA89F10C982F
:100D100000F082F90DB936A008E0012D01D135A00F
:100D200004E0022D01D134A000E034A08346002469
:100D300004E01BF8040004A90855641C1BF8040017
:100D40000028F6D13A222046641C04A90A54202225
:100D50002046641C0A54785D01A900F09AFC002624
:100D600007E03046761C01A90A5C2046641C04A9F1
:100D70000A5401A8805D0028F3D104A90855012375
:100D80001F4A0C9800F0D7FA0AF1100082B21FFA3D
:100D900089F10C9800F040F9002418F8051064223D
:100DA00001FB02F0C11700EB11710911009104A9B8
:100DB000009800F06EFC00E0641C04A8005D0028B0
:100DC000FAD125222146641C04A84254002004A91B
:100DD000085501230A4A0C9800F0ADFA6D1C042D49
:100DE00080DB0C9800F0BEFA0FB0BDE8F08F000079
:100DF000464C000046520000524C00005252000087
:100E00001000002029B1064AD2690243044BDA617E
:100E100004E0034AD2698243014BDA617047000063
:100E20000010024029B1064A92690243044B9A61BC
:100E300004E0034A92698243014B9A6170470000C3
:100E40000010024010B501210C20FFF7EBFF01213B
:100E50004FF00870FFF7D6FF10BD000030B500213D
:100E60000022002400232D4D6D6805F00C0121B1F6
:100E7000042905D0082923D105E0294D056022E089
:100E8000274D05601FE0254D6D6805F47012234D58
:100E90006D6805F48034022505EB92421CB9214DA2
:100EA000554305600BE01D4D6D6805F400351DB11F
:100EB0001C4D5543056002E0194D5543056002E0A5
:100EC000174D056000BF00BF144D6D6805F0F001BF
:100ED0000909154D6B5C0568DD4045600F4D6D6877
:100EE00005F4E061090A104D6B5C4568DD408560E2
:100EF0000A4D6D6805F46051C90A0B4D6B5C45687D
:100F0000DD40C560054D6D6805F44041890B074D16
:100F10006B5CC568B5FBF3F5056130BD00100240A0
:100F200000127A0000093D0030000020400000203F
:100F300010B504460021204600F05FF8204600F07E
:100F400011FA10BDF0B504461D46842901DA402A85
:100F500000DBF0BD207A20B10DB9012000E00020B7
:100F60000546012D24D11046D61702EB5676F61011
:100F700006EB461601EB860704F10A06F65D1346FA
:100F8000D71702EB5777FF10A2EBC70C012707FA20
:100F90000CF73E43F7B2D61702EB5676F61006EB87
:100FA000461601EB860C04F10A0606F80C7022E0E6
:100FB000D61702EB5676F61006EB461601EB8607BF
:100FC00004F10A06F65D1346D71702EB5777FF10B8
:100FD000A2EBC70C012707FA0CF7BE431046D71740
:100FE00002EB5777FF1007EB471701EB870C04F173
:100FF0000A0707F80C6000BFABE770B504460D4662
:101000000DB9002000E0FF2002464FF4846104F196
:101010000A00FFF7D9F870BD8B1C8380C28070472F
:101020002DE9F8430446884616461F468DF80060B1
:101030008DF8017001212068FFF72EFD144920680A
:10104000FFF7C3FD08B9BDE8F883002241462068D8
:10105000FFF7B0FD0F492068FFF7B7FD00B9F2E7D1
:1010600000250CE01DF805102068FFF7ACFD0949CC
:10107000891C2068FFF7A9FD00B9E4E76D1C022D6B
:10108000F0DB01212068FFF713FD00BFDBE7000064
:1010900001000300820007002DE9F043C1B00446BF
:1010A000894616461F46DDF820818DF80460002031
:1010B00004E03A5C01AB411C5A54401C4045F8DB4B
:1010C00001212068FFF7E8FC15492068FFF77DFD46
:1010D00010B941B0BDE8F083002249462068FFF70F
:1010E00069FD10492068FFF770FD00B9F1E70025A0
:1010F0000CE001AA515D2068FFF765FD0949891CD4
:101100002068FFF762FD00B9E3E76D1C08F10100FC
:101110008542EEDB01212068FFF7CAFC00BFD8E75B
:1011200001000300820007002DE9F04104460E464D
:101130002660002701212068FFF7AEFC5549206892
:10114000FFF743FD10B90020BDE8F08100227821AF
:101150002068FFF72FFD50492068FFF736FD08B9DA
:101160000020F1E739462068FFF72DFD4A49891C28
:101170002068FFF72AFD08B90020E5E70121206873
:10118000FFF796FC40F6C41500E06D1E002DFCD163
:10119000AE21204600F009F92021204600F005F993
:1011A0001021204600F001F9B021204600F0FDF8A2
:1011B000C821204600F0F9F80021204600F0F5F89B
:1011C0001021204600F0F1F84021204600F0EDF813
:1011D0008121204600F0E9F8FF21204600F0E5F8E3
:1011E000A121204600F0E1F8A621204600F0DDF81C
:1011F000A821204600F0D9F83F21204600F0D5F87C
:10120000A421204600F0D1F8D321204600F0CDF8EB
:101210000021204600F0C9F8D521204600F0C5F88D
:10122000F021204600F0C1F8D921204600F0BDF899
:101230002221204600F0B9F8DA21204600F0B5F866
:101240001221204600F0B1F8DB21204600F0ADF875
:101250002021204600F0A9F88D21204600F0A5F8B5
:101260001421204600F0A1F8AF21204600F09DF89F
:101270002E21204600F099F800212046FFF7BDFE00
:10128000204600F06FF80020A080E080012060720E
:1012900000BF59E701000300820007002DE9F04775
:1012A0000446884615469946A0882978084484282B
:1012B00004DAE08869780844402802DB0020BDE8B1
:1012C000F08700262EE0A8F12000697800FB01607D
:1012D000696831F810A0002720E00AFA07F000F44E
:1012E000004050B1E088304482B2A088384481B2D6
:1012F0004B462046FFF726FE0FE0B9F1000F01D163
:10130000012000E000200346E088304482B2A0883B
:10131000384481B22046FFF715FE7F1C2878B8427A
:10132000DBD8761C6878B042CDD8A08829780844EC
:10133000A0804046C3E7F0B505460C4616461F465A
:101340000BE021783B4632462846FFF7A7FF21787D
:10135000884201D02078F0BD641C20780028F0D1AC
:101360002078F8E738B5054600241BE004F1B0000A
:10137000C1B2284600F019F80021284600F015F8FF
:101380001021284600F011F88420009005F10A0091
:10139000842101FB0403402278212846FFF77CFECC
:1013A000601CC4B2082CE1DB38BD70B505460C46A4
:1013B0002346002278212846FFF732FE70BD10B583
:1013C00000F002F810BD00000CB500200190009064
:1013D0003348006840F480303149086000BF30482D
:1013E000006800F4003000900198401C01900098C3
:1013F00018B90198B0F5A06FF1D12948006800F440
:10140000003010B10120009001E000200090009811
:10141000012843D12348006840F0100021490860AA
:101420000846006820F0070008600846006840F0A1
:10143000020008601A484068194948600846406838
:1014400048600846406840F480604860084640684C
:1014500020F47C1048600846406840F4E81048607A
:101460000846006840F08070086000BF0C480068C3
:1014700000F000700028F9D00948406820F003000F
:10148000074948600846406840F00200486000BFD5
:101490000348406800F00C000828F9D10CBD00009A
:1014A000001002400020024010B51348006840F0D0
:1014B00001001149086008464068104908400E497B
:1014C0004860084600680E4908400B490860084615
:1014D000006820F4802008600846406820F4FE0080
:1014E00048604FF41F008860FFF769FF4FF000600D
:1014F0000449086010BD0000001002400000FFF821
:10150000FFFFF6FE08ED00E00EB501210846FFF7EB
:1015100079FC0020ADF8060041F61F40ADF8000050
:101520004FF6FF70ADF804000020ADF802006946E8
:101530004FF0804000F016F80121880700F001F814
:101540000EBD21B1028842F00102028004E002884F
:101550004FF6FE731A40028070470146888C704730
:1015600081847047002202881D4B98420ED01D4B8B
:1015700098420BD0B0F1804F08D01B4B984205D059
:101580001A4B984202D01A4B984204D14FF68F73EF
:101590001A404B881A43174B984207D0164B984273
:1015A00004D04FF6FF431A40CB881A4302808B8841
:1015B00083850B8803850A4B98420BD0094B9842D0
:1015C00008D00E4B984205D00D4B984202D00D4BDF
:1015D000984201D10B7A0386012383827047000071
:1015E000002C01400034014000040040000800408D
:1015F000000C00400010004000140040004001407A
:10160000004401400048014010B502211548FEF792
:101610009BFF28B3144940F2AD10FFF731F90020C9
:1016200005E0114A411C515C104A1154401C042829
:10163000F7DB0D48407900090D4908700A484079E8
:1016400000F00F004870084880790009887006484B
:10165000807900F00F00C87002210248FEF742FEB8
:1016600010BD0000006400400000002008000020C1
:101670000C00002010B5044600214FF08040FFF719
:101680006FFF00BF4FF08040FFF767FFA042F9D324
:1016900010BD7EB500220023002804DA2D261C464A
:1016A0005B1C0E55404200BF0A2490FBF4F504FB7E
:1016B00015043034E6B21446521C0DF804600A24B6
:1016C00090FBF4F00028EFDC06E0541E22461DF8E3
:1016D00004601C465B1C0E55002AF6DC0024CC542A
:1016E0007EBD0000ADF5866D4FF4A060FFF7C0FA37
:1016F000FFF7A8FBFFF7EAF8FFF706FF00BF0A496C
:1017000001A8FFF7BFFA0028F9D0FEF73FFEFEF769
:1017100077FE07E0054A064901A8FFF7D9FA0A2033
:10172000FFF7A8FFF6E70000005400400C0000207F
:101730000800002000000000000000000000000081
:101740000000000000000000001000100010001059
:101750000010001000000010000000000028002809
:101760000028000000000000000000000000000051
:1017700000240024007C00240048007C004800482D
:1017800000000000003800540050003800140054DD
:1017900000540038001000000020005400580030B1
:1017A0000028005400140008000000000010002869
:1017B00000280010003400480048003400000000F9
:1017C00000100010001000000000000000000000E9
:1017D0000000000000080010002000200020002071
:1017E0000020002000100008002000100008000861
:1017F0000008000800080008001000200010003851
:1018000000100028000000000000000000000000A0
:101810000000000000100010007C0010001000000C
:1018200000000000000000000000000000000000B8
:101830000000001000100010000000000000000078
:101840000000003800000000000000000000000060
:101850000000000000000000000000100000000078
:1018600000080008001000100010001000200020E8
:1018700000000000003800440044005400440044CC
:10188000004400380000000000100030005000103C
:10189000001000100010001000000000003800448C
:1018A00000440004000800100020007C000000003C
:1018B000003800440004001800040004004400380C
:1018C0000000000000080018002800280048007CE4
:1018D0000008000800000000007C00400040007884
:1018E00000040004004400380000000000380044F8
:1018F000004000780044004400440038000000002C
:10190000007C0004000800100010002000200020CF
:101910000000000000380044004400380044004447
:101920000044003800000000003800440044004437
:10193000003C0004004400380000000000000000EB
:101940000010000000000000000000100000000077
:101950000000000000000010000000000000001067
:101960000010001000000000000C003000400030AB
:10197000000C000000000000000000000000007CDF
:101980000000007C000000000000000000000000DB
:101990000060001800040018006000000000000053
:1019A000003800440004000800100010000000107F
:1019B0000000000000380044004C0054005C00406F
:1019C0000040003800000000001000280028002817
:1019D0000028007C0044004400000000007800441F
:1019E00000440078004400440044007800000000F7
:1019F00000380044004000400040004000440038EF
:101A0000000000000070004800440044004400440E
:101A10000048007000000000007C00400040007C96
:101A2000004000400040007C00000000007C0040BE
:101A300000400078004000400040004000000000EE
:101A40000038004400400040005C0044004400387E
:101A500000000000004400440044007C00440044B6
:101A60000044004400000000003800100010001086
:101A700000100010001000380000000000040004F6
:101A800000040004000400040044003800000000CA
:101A900000440048005000600050004800480044E6
:101AA00000000000004000400040004000400040B6
:101AB0000040007C000000000044006C006C0054FA
:101AC000004400440044004400000000004400645E
:101AD000006400540054004C004C0044000000001E
:101AE00000380044004400440044004400440038EE
:101AF00000000000007800440044004400780040EA
:101B00000040004000000000003800440044004451
:101B100000440044005400380004000000780044F1
:101B200000440044007800480048004400000000E1
:101B30000038004400400030000800040044003831
:101B400000000000007C00100010001000100010C9
:101B50000010001000000000004400440044004455
:101B600000440044004400380000000000440044E9
:101B70000044002800280028001000100000000089
:101B800000440044005400540054006C0028002815
:101B90000000000000440028002800100010002869
:101BA00000280044000000000044004400280028F1
:101BB000001000100010001000000000007C000465
:101BC00000080010001000200040007C0000000011
:101BD000001800100010001000100010001000107D
:101BE000001000180020002000100010001000104D
:101BF0000008000800000000003000100010001075
:101C0000001000100010001000100030001000281C
:101C10000028004400000000000000000000000058
:101C200000000000000000000000000000000000B4
:101C3000000000FE00200010000000000000000076
:101C40000000000000000000000000000038004418
:101C5000003C0044004C0034000000000040004004
:101C60000058006400440044006400580000000074
:101C700000000000003800440040004000440038EC
:101C800000000000000400040034004C0044004444
:101C9000004C003400000000000000000038004448
:101CA000007C00400044003800000000000C0010E0
:101CB000007C001000100010001000100000000058
:101CC000000000000034004C00440044004C00348C
:101CD00000040078004000400058006400440044C4
:101CE00000440044000000000010000000700010DC
:101CF0000010001000100010000000000010000094
:101D0000007000100010001000100010001000E023
:101D1000004000400048005000600050004800446F
:101D200000000000007000100010001000100010F3
:101D300000100010000000000000000000780054B7
:101D40000054005400540054000000000000000043
:101D500000580064004400440044004400000000B7
:101D600000000000003800440044004400440038F3
:101D7000000000000000000000580064004400441F
:101D80000064005800400040000000000034004C97
:101D900000440044004C0034000400040000000033
:101DA0000058006400400040004000400000000077
:101DB00000000000003800440030000800440038F3
:101DC00000000000002000200078002000200020FB
:101DD0000020001800000000000000000044004443
:101DE00000440044004C00340000000000000000EB
:101DF00000440044002800280028001000000000D3
:101E000000000000005400540054006C002800281A
:101E10000000000000000000004400280010001036
:101E200000280044000000000000000000440044BE
:101E300000280028001000100010006000000000C2
:101E4000007C0008001000200040007C0000000022
:101E500000180010001000100020002000100010DA
:101E600000100018001000100010001000100010EA
:101E700000100010001000100030001000100010C2
:101E800000080008001000100010003000000000E2
:101E900000000074004C0000000000000000000082
:101EA0000000000000000000000000000000000032
:101EB0000000000000000000000000000000000022
:101EC000000000000000000C000C000C000C000CD6
:101ED000000C000C000C000C000C000C0000000CAE
:101EE000000C0000000000000000001B001B001B95
:101EF000001B001B000000000000000000000000AC
:101F00000000000000000000000000000000801938
:101F1000801980198019C07FC07F80190033C07F6D
:101F2000C07F0033003300330033000000000000A6
:101F30000000001E003F807580650074003C001E9C
:101F400000078005806580658075003F001E0004E5
:101F5000000400000000007000D840D8C0D880D92C
:101F600000730006000C801BC036C066C046C00669
:101F700080030000000000000000001E003F00334E
:101F800000330033001E000CC03CC06680638061DB
:101F90008063C03E801C0000000000000000000CB8
:101FA000000C000C000C000C000000000000000001
:101FB0000000000000000000000000000000000021
:101FC000800000010003000600060004000C000C65
:101FD000000C000C000C000C0004000600060003BE
:101FE00000018000002000100018000C000C00040C
:101FF0000006000600060006000600060004000CAD
:10200000000C0018001000200000000C002D003F04
:10201000001E00330000000000000000000000006F
:1020200000000000000000000000000000000000B0
:102030000000000C000C000C000CC0FFC0FF000CE6
:10204000000C000C000C000000000000000000006C
:102050000000000000000000000000000000000080
:1020600000000000000000000000000C000C000454
:102070000004000800000000000000000000000054
:10208000000000000000001E001E00000000000014
:102090000000000000000000000000000000000040
:1020A0000000000000000000000000000000000030
:1020B0000000000C000C0000000000000000000305
:1020C000000300030006000600060006000C000CDA
:1020D000000C000C001800180018000000000000A0
:1020E0000000001E003F0033806180618061806DD0
:1020F000806D8061806180610033003F001E0000C0
:102100000000000000000006000E001E0036002641
:10211000000600060006000600060006000600068F
:1021200000060000000000000000001E003F807359
:1021300080618061800100030006000C00180030FF
:102140000060807F807F0000000000000000001C15
:10215000003E006300630003000E000E00038001D8
:10216000800180618073003F001E000000000000BD
:1021700000000006000E000E001E001E00160036B5
:1021800000360066807F807F0006000600060000A3
:10219000000000000000007F007F00600060006021
:1021A000006E007F80638001800180618073003F4A
:1021B000001E0000000000000000001E003F8033F1
:1021C00080610060006E007F80738061806180614B
:1021D0008033003F001E0000000000000000807FF0
:1021E000807F80010003000300060006000C000C45
:1021F000000C000800180018001800000000000083
:102200000000001E003F8063806180610021001E8D
:10221000003F8061806180618061003F001E00009E
:10222000000000000000001E003F0073806180611C
:1022300080618073803F801D800180610073003F5A
:10224000001E000000000000000000000000000070
:102250000000000C000C0000000000000000000066
:102260000000000C000C0000000000000000000056
:102270000000000000000000000C000C0000000046
:10228000000000000000000C000C00040004000826
:10229000000000000000000080008003000E0038F5
:1022A00000600038000E8003800000000000000085
:1022B0000000000000000000000000000000807F1F
:1022C000807F00000000807F807F00000000000011
:1022D00000000000000000000000000000000000FE
:1022E00000400070001C000780010007001C007007
:1022F0000040000000000000000000000000001F7F
:10230000803FC071C060C000C00180030007000EA4
:10231000000C000C0000000C000C0000000000008D
:102320000000001E003F803180718063806F806DEF
:10233000806D806F806700600032003E001C0000EE
:10234000000000000000000E000E001B001B001B20
:10235000001B80318031803F803F8031C060C06091
:10236000C0600000000000000000007C007E0063F0
:10237000006300630063007E007E00638061806113
:102380008063007F007E0000000000000000001E4F
:10239000003F80318061006000600060006000608C
:1023A000006080618031003F001E000000000000DE
:1023B0000000007C007F0063806380618061806139
:1023C00080618061806100630063007E007C0000AA
:1023D000000000000000807F807F006000600060DF
:1023E0000060007F007F0060006000600060807F10
:1023F000807F0000000000000000807F807F006080
:10240000006000600060007F007F0060006000608E
:102410000060006000600000000000000000001E7E
:10242000003F8031806100600060006080638063F5
:10243000806180618031803F001E0000000000004C
:102440000000806180618061806180618061807F47
:10245000807F806180618061806180618061000037
:10246000000000000000003F003F000C000C000CCA
:10247000000C000C000C000C000C000C000C003FC9
:10248000003F00000000000000008001800180018A
:102490008001800180018001800180018061806174
:1024A0008073003F001E0000000000000000C060BC
:1024B0008061006300660066006C0078007C006646
:1024C0000066006380618061C06000000000000061
:1024D000000000600060006000600060006000605C
:1024E00000600060006000600060807F807F00000E
:1024F000000000000000C071C071C07BC07AC06ADB
:10250000C06AC06EC064C060C060C060C060C060AF
:10251000C0600000000000000000807180718079C0
:1025200080798079806D806D806D8065806780673F
:102530008067806380630000000000000000001ED0
:10254000003F0033806180618061806180618061D3
:10255000806180610033003F001E00000000000029
:102560000000007E007F8063806180618061806305
:10257000007F007E0060006000600060006000007E
:10258000000000000000001E003F003380618061F9
:102590008061806180618061806580670033803FF9
:1025A000401E0000000000000000007E007F8063ED
:1025B000806180618063007F007E0066006300634D
:1025C00080618061C0600000000000000000000E1B
:1025D000001F8031803100300038001E000780036A
:1025E000806180618031003F001E0000000000001B
:1025F0000000C0FFC0FF000C000C000C000C000C21
:10260000000C000C000C000C000C000C000C000076
:102610000000000000008061806180618061806155
:102620008061806180618061806180618073003F32
:10263000001E0000000000000000C060C060C0601C
:10264000803180318031001B001B001B001B000EFD
:10265000000E000E00040000000000000000C0C0DA
:10266000C0C0C0C0C0C0C0C0C0CC804C804C805E68
:102670008052805280738061806100000000000001
:102680000000C0C0806080610033003B001E000C71
:10269000000C001E001F003B80718061C0C0000064
:1026A000000000000000C0C0806180610033003382
:1026B000001E001E000C000C000C000C000C000C96
:1026C000000C0000000000000000803F803F8001FF
:1026D000000300030006000C000C00180018003076
:1026E0000060807F807F000000000000000F000F6E
:1026F000000C000C000C000C000C000C000C000C7A
:10270000000C000C000C000C000C000C000F000F63
:102710000000001800180018000C000C000C000C41
:102720000006000600060006000300030003000088
:1027300000000000001E001E000600060006000645
:102740000006000600060006000600060006000659
:1027500000060006001E001E0000000C000C001EFB
:10276000001200330033806180610000000000002F
:102770000000000000000000000000000000000059
:102780000000000000000000000000000000000049
:10279000000000000000000000000000E0FF00005A
:1027A000000000380018000C0000000000000000CD
:1027B0000000000000000000000000000000000019
:1027C0000000000000000000000000000000001FEA
:1027D000803F80618001801F803F80618063807FB7
:1027E000C0380000000000000000006000600060D1
:1027F0000060006E007F8073806180618061806115
:102800008073007F006E00000000000000000000E8
:10281000000000000000001E003F80738061006027
:10282000006080618073003F001E00000000000017
:1028300000008001800180018001801D803F807345
:1028400080618061806180618073803F801D0000B5
:102850000000000000000000000000000000001E5A
:10286000003F00738061807F807F00608071003F47
:10287000001E0000000000000000C007C00F000C98
:10288000000C807F807F000C000C000C000C000C02
:10289000000C000C000C0000000000000000000014
:1028A00000000000801D803F807380618061806136
:1028B00080618073803F801D80018063007F003EC7
:1028C00000000060006000600060006F807F807129
:1028D00080618061806180618061806180610000D1
:1028E0000000000000000006000600000000003E9E
:1028F000003E000600060006000600060006000670
:1029000000060000000000000006000600000000B5
:10291000003E003E00060006000600060006000617
:102920000006000600060046007E003C0000006035
:10293000006000600060806100630066006C007CE5
:102940000076006300638061C0600000000000004A
:102950000000003E003E00060006000600060006DD
:10296000000600060006000600060006000600003D
:10297000000000000000000000000000000080DDFA
:10298000C0FFC0CEC0CCC0CCC0CCC0CCC0CCC0CCB2
:10299000C0CC0000000000000000000000000000AB
:1029A0000000006F807F8071806180618061806144
:1029B0008061806180610000000000000000000074
:1029C000000000000000001E003F807380618061F5
:1029D000806180618073003F001E000000000000E5
:1029E0000000000000000000006E007F8073806126
:1029F0008061806180618073007F006E0060006094
:102A0000006000600000000000000000801D803FAA
:102A1000807380618061806180618073803F801DF0
:102A200080018001800180010000000000000000A2
:102A300000000067803F0039003000300030003077
:102A400000300030003000000000000000000000F6
:102A5000000000000000001E803F80610060007FD9
:102A6000803F80018061007F001E000000000000A8
:102A700000000000000800180018007F007F001808
:102A800000180018001800180018801F800F0000A0
:102A90000000000000000000000000000000806155
:102AA0008061806180618061806180618063807FFE
:102AB000803D000000000000000000000000000059
:102AC0000000C060803180318031001B001B001B82
:102AD000000E000E000600000000000000000000D4
:102AE00000000000000080DD80DD80DD0055005525
:102AF000005500770077002200220000000000004F
:102B0000000000000000000000008061003300337E
:102B1000001E000C000C001E00330033806100001A
:102B200000000000000000000000000080618061E3
:102B3000803100330033001B001B001B000E000E11
:102B4000000E001C007C007000000000000000006F
:102B50000000C07FC07F800100030006000C001849
:102B60000030C07FC07F00000000000080038007AD
:102B700000060006000600060006000E001C001CF1
:102B8000000E00060006000600060006800780030F
:102B90000006000600060006000600060006000605
:102BA00000060006000600060006000600060006F5
:102BB000000600060038003C000C000C000C000C65
:102BC000000C000E00070007000E000C000C000CAB
:102BD000000C000C003C0038000000000000000069
:102BE0000000000000008038807F004700000000E7
:102BF00000000000000000000000000000000000D5
:102C000000000000000000000000000000000000C4
:102C100000000000000000000000000000000000B4
:102C200000000000000000000000000000000000A4
:102C3000E003E003E003E003E003E003E003E0037C
:102C4000C003C003C001C001C001C001C001000039
:102C500000000000E003E003E003000000000000CB
:102C6000000000003C1E3C1E3C1E3C1E3C1E3C1E48
:102C70003C1E0000000000000000000000000000FA
:102C80000000000000000000000000000000000044
:102C90000000000000000000CE01CE03DE039E0312
:102CA0009C039C07FF3FFF7F3807380F780F780F92
:102CB000780EFFFFFFFFF01EF01CE01CE03CE03D43
:102CC000E03900000000000000000000FC03FE0FDF
:102CD000EE1FE01EE01EE01EE01EE01FE00FE0071A
:102CE000F003FC01FE01FE01FE01FE01FE01FE01FA
:102CF000FE3DFC3FF00FE001E0010000000000009D
:102D0000033E07F78FE78EE79EE3BCE3B8E7F8E7FB
:102D1000F0F7E03FC001FF03FF07F307F30FF31ED7
:102D2000F33CF338F3787FF03FE000000000000050
:102D300000000000E007F80F780F781F781F781F59
:102D4000780FF00FE00F801FC37FC3FBE7F3F7F1AD
:102D5000F7F0FFF07FF03EF87F7CFF3FEF1F0000B1
:102D60000000000000000000E003E003E003E003D7
:102D7000E003C003C00100000000000000000000EC
:102D80000000000000000000000000000000000043
:102D90000000000000000000000000003F007C0078
:102DA000F001E001C003C00780078007800F000F1B
:102DB000000F000F000F000F000F800F800780072B
:102DC000C007C003E001F0017C003F000F000000DD
:102DD000007E001FC007C003E001F001F000F0001A
:102DE000F800780078007800780078007800F80023
:102DF000F000F000F001E001C003C007001F007EFA
:102E000000780000E003C003C001CE39FF3F7F3FE0
:102E100020037003F807780F3C1F380600000000FD
:102E200000000000000000000000000000000000A2
:102E30000000000000000000000000000000000092
:102E400000000000C001C001C001C001C001C001FC
:102E5000C001FFFFFFFFC001C001C001C001C001F0
:102E6000C0010000000000000000000000000000A1
:102E70000000000000000000000000000000000052
:102E80000000000000000000000000000000E0035F
:102E9000E003E003E003E001E001E001C0018003A2
:102EA0000000000000000000000000000000000022
:102EB000000000000000FE3FFE3F00000000000098
:102EC0000000000000000000000000000000000002
:102ED00000000000000000000000000000000000F2
:102EE00000000000000000000000000000000000E2
:102EF000000000000000E003E003E003E003000046
:102F000000000000000000000F000F001E001E0067
:102F10003C003C0078007800F000F000E001E001A7
:102F2000C003C00380078007000F000F001E001EB3
:102F3000003C003C0078007800F00000F007F80F3B
:102F40007C1F3E3E1E3C1F7C1F7C0F780F780F7845
:102F50000F780F780F780F781F7C1F7C1E3C3E3E49
:102F60007C1FF80FF00700000000000000000000C8
:102F7000F000F007F03FF03FF001F001F001F00148
:102F8000F001F001F001F001F001F001F001F001B9
:102F9000F001F001F001FF3FFF3F000000000000E2
:102FA00000000000E00FF83F7C3C3C003E003E008B
:102FB0003E003C003C007C00F800F001E003C0074C
:102FC0008007000F001E003E003CFE3FFE3F000059
:102FD0000000000000000000F00FF81F7C1C3E0005
:102FE0003E003E003C003C00F800F00FF80F7C0073
:102FF0003E001E001E001E001E003E007C1CF81F2E
:10300000E01F000000000000000000007800F80051
:10301000F800F801F803F807F807780F781E781E13
:10302000783C78787878FFFFFFFF780078007800A8
:103030007800780078000000000000000000000028
:10304000FC1FFC1FFC1F001E001E001E001E001E99
:10305000E01FF81FFC007C003E003E001E003E000A
:103060003E003C007C1CF81FE01F00000000000038
:1030700000000000FC01FE078E0F001F001E003E36
:10308000003C003CF83DFC3F3E7F1F7E0F3C0F3C68
:103090000F3C0F3C0F3E1F1E3E1FFC0FF0030000B5
:1030A0000000000000000000FF3FFF3FFF3F0F0057
:1030B0001E001E003C0038007800F000F000E00127
:1030C000E001C003C0038007800F800F000F001FC6
:1030D000001F00000000000000000000F807FC0FC7
:1030E0003E1F1E1E1E3E1E3E1E1E3C1FF80FF007FA
:1030F000F80FFC1E3E3E1F3C1F7C0F7C0F7C1F3CCC
:103100003E3FFC1FF0070000000000000000000030
:10311000F007F80F7C1E3E3C1E3C1F7C1F7C1F7C72
:103120001F7C1F3C3F3EFF1FEF071F001E001E00BD
:103130003E003C00F838F03FE01F000000000000B7
:10314000000000000000000000000000000000007F
:10315000E003E003E003E0030000000000000000E3
:10316000000000000000E003E003E003E0030000D3
:10317000000000000000000000000000000000004F
:1031800000000000E003E003E003E00300000000B3
:1031900000000000000000000000E003E003E00386
:1031A000E003E001E001E001C00380030000000053
:1031B000000000000000000003000F003F00FC00C2
:1031C000F003C00F003F00FE003FC00FF003FC0003
:1031D0003F000F000300000000000000000000009E
:1031E00000000000000000000000000000000000DF
:1031F00000000000FFFFFFFF000000000000FFFFD5
:10320000FFFF0000000000000000000000000000C0
:1032100000000000000000000000000000000000AE
:1032200000E000F8007E801FE007F8017E001F002C
:103230007E00F801E007801F007E00F800E000003B
:103240000000000000000000F01FFC3F3E381F3867
:103250001F381E001E003C007800F000E001C00393
:10326000C003C007C007000000000000C007C0077F
:10327000C00700000000000000000000F803FE0F7F
:103280001E1F0F3E7F3CFF78EF79C773C7F38FF3A4
:103290008FF38FF39FF39FF3FF73FF7BF779003C6E
:1032A0001C1FFC0FF80300000000000000000000DD
:1032B000000000000000E003E003F007F007F00763
:1032C000780F780F7C0E3C1E3C1E3E3CFE3FFF3FBD
:1032D0001F780F780FF007F007F0000000000000E3
:1032E00000000000000000000000F83FFC3F3E3CF2
:1032F0001E3C1E3C1E3C3E3C7C3CF03FF83F7E3C6E
:103300001F3C1F3C0F3C0F3C1F3CFE3FF83F0000A2
:103310000000000000000000000000000000FF01AD
:10332000FF07871F003E003C007C00780078007893
:1033300000780078007C007C003E003F831FFF0780
:10334000FF0100000000000000000000000000007D
:103350000000F07FFC7F7E781F781F780F780F7851
:103360000F780F780F780F780F780F781F781E7806
:103370007E78F87FE07F0000000000000000000081
:10338000000000000000FF3FFF3F003E003E003E07
:10339000003E003E003EFE3FFE3F003E003E003E3F
:1033A000003E003E003EFF3FFF3F000000000000E7
:1033B00000000000000000000000FF1FFF1F001EB3
:1033C000001E001E001E001E001EFF1FFF1F001E0D
:1033D000001E001E001E001E001E001E001E00001B
:1033E0000000000000000000000000000000FE03DC
:1033F000FF0F871F003E007C007C007800F800F87B
:103400007FF87FF80F780F7C0F7C0F3E8F1FFF0F28
:10341000FE030000000000000000000000000000AB
:1034200000001F7C1F7C1F7C1F7C1F7C1F7C1F7C5F
:103430001F7CFF7FFF7F1F7C1F7C1F7C1F7C1F7CEE
:103440001F7C1F7C1F7C00000000000000000000AB
:10345000000000000000FF3FFF3FE003E003E00347
:10346000E003E003E003E003E003E003E003E00344
:10347000E003E003E003FF3FFF3F00000000000027
:1034800000000000000000000000FC1FFC1F7C008A
:103490007C007C007C007C007C007C007C007C004C
:1034A0007C007C0078007800F838F03FC03F0000D6
:1034B00000000000000000000000000000001F3CB1
:1034C0001E3C3C3C783CF03CE03DE03FC03F803F50
:1034D000C03FE03FF03DF03C783C7C3C3E3C1F3C34
:1034E0000F3C000000000000000000000000000091
:1034F0000000003E003E003E003E003E003E003E1A
:10350000003E003E003E003E003E003E003E003ECB
:10351000003EFF3FFF3F00000000000000000000F1
:103520000000000000001FF81FFC1FFC3FFE3FFED4
:103530003FFE7FFF77FF77FFF7F7E7F7E7F3E7F364
:10354000C7F307F007F007F007F0000000000000E5
:10355000000000000000000000000F7C0F7C0F7EC8
:103560000F7F0F7F8F7F8F7FCF7FEF7BEF79FF798B
:10357000FF78FF787F783F783F781F781F780000CA
:103580000000000000000000000000000000F00744
:10359000FC1F3E3E1F7C0F780F780FF80FF80FF8D6
:1035A0000FF80FF80FF80F780F781F7C3E3EFC1FC6
:1035B000F007000000000000000000000000000014
:1035C0000000FC3FFF3F1F3E0F3E0F3E0F3E0F3EF1
:1035D0001F3E3F3EFC3FF03F003E003E003E003EAF
:1035E000003E003E003E0000000000000000000021
:1035F000000000000000F007FC1F3E3E1F7C0F781B
:103600000F780FF80FF80FF80FF80FF80FF80F7882
:103610000F781F7C3E3EFC1FF8077C003F000F0028
:1036200003000000000000000000F03FFC3F7E3C73
:103630003E3C1E3C1E3C3E3C3C3CFC3CF03FE03FE4
:10364000F03DF83C7C3C3E3C1E3C1F3C0F3C0000E7
:103650000000000000000000000000000000FC0767
:10366000FE1F0E3E003C003C003C003EC01FF80F19
:10367000FE037F001F000F000F001F203E3CFC3F99
:10368000F01F00000000000000000000000000002B
:103690000000FFFFFFFFE003E003E003E003E003BF
:1036A000E003E003E003E003E003E003E003E00302
:1036B000E003E003E0030000000000000000000061
:1036C0000000000000000F7C0F7C0F7C0F7C0F7C43
:1036D0000F7C0F7C0F7C0F7C0F7C0F7C0F7C0F7C92
:1036E0001E3C1E3C3E3EFC1FF00700000000000098
:1036F0000000000000000000000007F007F007F8DD
:103700000F780F7C1E3C1E3C1E3E3C1E3C1F781F4B
:10371000780FF80FF007F007F007E003E003000070
:10372000000000000000000000000000000003E0B6
:1037300003F003F007F0E7F3E7F3E7F3E773F77B52
:10374000F77FFF7F7F7F7F7F7E7F7E3F3E3E3E3ED7
:103750003E3E0000000000000000000000000000ED
:10376000000007F80F7C1E3E3E3E3C1FF80FF0079E
:10377000E007E003E003F007F80F7C0F7C1E3E3CFF
:103780001F780F780FF0000000000000000000001C
:1037900000000000000007F807780F7C1E3C1E3E6A
:1037A0003C1F780FF80FF007E003E003E003E003AD
:1037B000E003E003E003E003E0030000000000009A
:1037C00000000000000000000000FF7FFF7F0F00EE
:1037D0001F003E007C00F800F000E001E003C0079D
:1037E000800F000F001E003E007CFF7FFF7F000067
:1037F0000000000000000000FF078007800780072E
:103800008007800780078007800780078007800780
:103810008007800780078007800780078007800770
:10382000800780078007FF07FF0700000078007807
:10383000003C003C001E001E000F000F80078007A8
:10384000C003C003E001E001F000F0007800780060
:103850003C003C001E001E000F000F00070000008F
:10386000F07FF000F000F000F000F000F000F00059
:10387000F000F000F000F000F000F000F000F000C8
:10388000F000F000F000F000F000F000F000F07F39
:10389000F07F0000C000C001C001E003E003F007BA
:1038A000F0077807780F380F3C1E3C1E1E3C1E3C6C
:1038B0000F380F78077800000000000000000000BB
:1038C00000000000000000000000000000000000F8
:1038D00000000000000000000000000000000000E8
:1038E00000000000000000000000000000000000D8
:1038F0000000FFFFFFFF000000000000F0000000DC
:1039000000000000000000000000000000000000B7
:1039100000000000000000000000000000000000A7
:103920000000000000000000000000000000000097
:10393000000000000000000000000000F80FFC3F45
:103940007C3C3E003E003E00FE07FE1F3E3E3E7CAD
:103950003E783E7C7E7CFF3FCF1F000000000000D1
:1039600000000000003C003C003C003C003C003CEF
:10397000F83DFE3F3E3F1F3E0F3C0F3C0F3C0F3CCF
:103980000F3C0F3C1F3C1E3C3E3FFC3FF03B000009
:103990000000000000000000000000000000000027
:1039A00000000000FE03FF0F871F003E003E003CAA
:1039B000007C007C007C003C003E003E871FFF0F27
:1039C000FE03000000000000000000001F001F00B8
:1039D0001F001F001F001F00FF07FF1F3F3E1F3C6F
:1039E0001F7C1F7C1F7C1F781F781F7C1F7C3F3C27
:1039F0007F3EFF1FDF0F00000000000000000000FE
:103A0000000000000000000000000000F803FC0FB0
:103A10003E1F1E3E1F3C1F7CFF7FFF7F007C007C03
:103A2000003C003E071FFF0FFE03000000000000E7
:103A300000000000FF01E103C003C007C007C0078A
:103A4000FF7FFF7FC007C007C007C007C007C007D0
:103A5000C007C007C007C007C007C007C0070000F5
:103A60000000000000000000000000000000000056
:103A700000000000EF07FF1F7F3E1F3C1F7C1F7CE4
:103A80001F781F781F781F7C1F7C3F3C7F3EFF1FE5
:103A9000DF0F1E001E001E007C38F83F003C003C7B
:103AA000003C003C003C003CFC3DFE3F9E3F1F3F75
:103AB0001F3E1F3C1F3C1F3C1F3C1F3C1F3C1F3C2C
:103AC0001F3C1F3C1F3C00000000000000000000E5
:103AD000F001F0010000000000000000E07FE07F46
:103AE000E001E001E001E001E001E001E001E001CE
:103AF000E001E001E001E001E00100000000000061
:103B000000000000F800F8000000000000000000C5
:103B1000F83FF83FF800F800F800F800F800F80067
:103B2000F800F800F800F800F800F800F800F800D5
:103B3000F800F000F071E07F003C003C003C003CED
:103B4000003C003C1F3C3E3C7C3CF83CF03DE03DF2
:103B5000C03FC03FE03FF03DF83C7C3C3E3C1F3C5A
:103B60001F3C00000000000000000000F07FF0019A
:103B7000F001F001F001F001F001F001F001F001BD
:103B8000F001F001F001F001F001F001F001F001AD
:103B9000F001F001F0010000000000000000000052
:103BA0000000000000000000000000009EF7FFFF82
:103BB000FFFFFFFFE7FBE7F9C7F1C7F1C7F1C7F167
:103BC000C7F1C7F1C7F1C7F1C7F10000000000005D
:103BD00000000000000000000000000000000000E5
:103BE000FC3DFE3F9E3F1F3F1F3E1F3C1F3C1F3CB6
:103BF0001F3C1F3C1F3C1F3C1F3C1F3C1F3C000048
:103C000000000000000000000000000000000000B4
:103C100000000000F007FC1F3E3E1F3C1F7C0F7899
:103C20000F780F780F780F781F7C1F3C3E3EFC1FEB
:103C3000F00700000000000000000000000000008D
:103C40000000000000000000F83DFE3F3E3F1F3E28
:103C50000F3C0F3C0F3C0F3C0F3C0F3C1F3C1E3EEB
:103C60003E3FFC3FF83F003C003C003C003C003C39
:103C7000000000000000000000000000EE07FE1F32
:103C80007E3E1E3C1E7C1E781E781E781E781E7896
:103C90001E7C3E7C7E3EFE1FDE0F1E001E001E00B0
:103CA0001E001E00000000000000000000000000D8
:103CB0007F1FFF1FE71FC71F871F001F001F001F59
:103CC000001F001F001F001F001F001F001F00001B
:103CD00000000000000000000000000000000000E4
:103CE00000000000FC07FE1F0E1E003E003E003FCD
:103CF000E01FFC07FE003E001E001E003E3CFC3F95
:103D0000F01F0000000000000000000000000000A4
:103D10000000800780078007FF7FFF7F8007800704
:103D2000800780078007800780078007800780075B
:103D3000C007FF03FF0100000000000000000000BA
:103D40000000000000000000000000001E3C1E3CBF
:103D50001E3C1E3C1E3C1E3C1E3C1E3C1E3C1E3C93
:103D60003E3C7E3CFE3EFE1FDE0F000000000000D9
:103D70000000000000000000000000000000000043
:103D800007F00F780F781E3C1E3C1E3E3C1E3C1E6A
:103D9000780F780FF00FF007F007E003E003000062
:103DA0000000000000000000000000000000000013
:103DB0000000000003F0E3F1E3F3E7F3F7F3F7F3B8
:103DC000F77F777F7F7F7F7F7F7F3E3E3E3E3E3E19
:103DD0003E3E000000000000000000000000000067
:103DE00000000000000000000F7C1E3E3C3E3C1F17
:103DF000F80FF007F007E003F007F807F80F7C1E54
:103E00003E3E1F3C1F780000000000000000000044
:103E100000000000000000000000000007F80F781C
:103E20000F7C1E3C1E3C3C1E3C1E3C1F780FF80FB6
:103E3000F007F007E003E003C003C003C0038007FE
:103E4000800F007F00000000000000000000000064
:103E5000FF3FFF3F1F003E007C00F800F001E00341
:103E6000C007800F001F001E003CFF7FFF7F000087
:103E70000000000000000000FE01E003C003C003DA
:103E8000C003C003E001E001E001C001C003803FC6
:103E9000803FC003C001E001E001E001C003C003B6
:103EA000C003C003E003FE017E000000C001C001AA
:103EB000C001C001C001C001C001C001C001C001FA
:103EC000C001C001C001C001C001C001C001C001EA
:103ED000C001C001C001C001C001C001C00100009B
:103EE000C03FE003E001E001E001E001C001C003E8
:103EF000C003C001E001FE00FE00E001C001C003FC
:103F0000C003C001E001E001E001E001E003C03FC7
:103F1000003F000000000000000000000000000062
:103F200000000000000000000000073FC77FE773AB
:103F3000FFF17EF000000000000000000000000023
:103F400000000000000000001000010080001800C8
:103F50000100800010006000800020006000400030
:103F60006000600060004000600020008000600091
:103F700000008000600010008000600010008000E1
:103F800000001000800000001000400060002000D1
:103F900040006000200020000000400030000000D1
:103FA000C0001F00FF0080001900690080000000B1
:103FB000D03F000800000020440000002801000855
:103FC000144000084400002064060000440100087A
:103FD00000000000000000000000000000000000E1
:103FE000070A0000341700080B120000A01E00088A
:103FF000101A0000FC2B000814110000483F0008B4
:10400000000000000102030401020304060708097E
:044010000204060898
:040000050800018965
:00000001FF
